{
  "contractName": "CBSC",
  "abi": [
    {
      "inputs": [],
      "stateMutability": "nonpayable",
      "type": "constructor"
    },
    {
      "anonymous": false,
      "inputs": [
        {
          "indexed": false,
          "internalType": "string",
          "name": "",
          "type": "string"
        },
        {
          "indexed": false,
          "internalType": "string",
          "name": "",
          "type": "string"
        },
        {
          "indexed": false,
          "internalType": "string",
          "name": "",
          "type": "string"
        },
        {
          "indexed": false,
          "internalType": "string",
          "name": "",
          "type": "string"
        }
      ],
      "name": "Activate",
      "type": "event"
    },
    {
      "anonymous": false,
      "inputs": [
        {
          "indexed": false,
          "internalType": "string",
          "name": "",
          "type": "string"
        },
        {
          "indexed": false,
          "internalType": "string",
          "name": "",
          "type": "string"
        },
        {
          "indexed": false,
          "internalType": "string",
          "name": "",
          "type": "string"
        },
        {
          "indexed": false,
          "internalType": "string",
          "name": "",
          "type": "string"
        }
      ],
      "name": "CommitmentCreated",
      "type": "event"
    },
    {
      "anonymous": false,
      "inputs": [
        {
          "indexed": false,
          "internalType": "string",
          "name": "",
          "type": "string"
        },
        {
          "indexed": false,
          "internalType": "string",
          "name": "",
          "type": "string"
        }
      ],
      "name": "EventCreated",
      "type": "event"
    },
    {
      "anonymous": false,
      "inputs": [
        {
          "indexed": false,
          "internalType": "string",
          "name": "",
          "type": "string"
        },
        {
          "indexed": false,
          "internalType": "string",
          "name": "",
          "type": "string"
        }
      ],
      "name": "ProtocolRun",
      "type": "event"
    },
    {
      "anonymous": false,
      "inputs": [
        {
          "indexed": false,
          "internalType": "string",
          "name": "",
          "type": "string"
        },
        {
          "indexed": false,
          "internalType": "string",
          "name": "",
          "type": "string"
        },
        {
          "indexed": false,
          "internalType": "string",
          "name": "",
          "type": "string"
        },
        {
          "indexed": false,
          "internalType": "string",
          "name": "",
          "type": "string"
        }
      ],
      "name": "Terminate",
      "type": "event"
    },
    {
      "inputs": [
        {
          "internalType": "string",
          "name": "time",
          "type": "string"
        },
        {
          "internalType": "string",
          "name": "type_",
          "type": "string"
        },
        {
          "internalType": "string",
          "name": "category",
          "type": "string"
        },
        {
          "internalType": "string",
          "name": "title",
          "type": "string"
        }
      ],
      "name": "createCommitment",
      "outputs": [],
      "stateMutability": "nonpayable",
      "type": "function"
    },
    {
      "inputs": [
        {
          "internalType": "string",
          "name": "time",
          "type": "string"
        },
        {
          "internalType": "string",
          "name": "title",
          "type": "string"
        }
      ],
      "name": "createEvent",
      "outputs": [],
      "stateMutability": "nonpayable",
      "type": "function"
    },
    {
      "inputs": [
        {
          "internalType": "string",
          "name": "time",
          "type": "string"
        },
        {
          "internalType": "string",
          "name": "title",
          "type": "string"
        }
      ],
      "name": "createFluent",
      "outputs": [],
      "stateMutability": "nonpayable",
      "type": "function"
    },
    {
      "inputs": [],
      "name": "protocolRun",
      "outputs": [],
      "stateMutability": "nonpayable",
      "type": "function"
    },
    {
      "inputs": [
        {
          "internalType": "string",
          "name": "t",
          "type": "string"
        }
      ],
      "name": "onTime",
      "outputs": [
        {
          "internalType": "string",
          "name": "TimeIs",
          "type": "string"
        },
        {
          "internalType": "string",
          "name": "EventTitleIs",
          "type": "string"
        },
        {
          "internalType": "string",
          "name": "CommitmentTitleIs",
          "type": "string"
        }
      ],
      "stateMutability": "view",
      "type": "function",
      "constant": true
    },
    {
      "inputs": [
        {
          "internalType": "string",
          "name": "t",
          "type": "string"
        }
      ],
      "name": "onEvent",
      "outputs": [
        {
          "internalType": "string",
          "name": "TimeIs",
          "type": "string"
        },
        {
          "internalType": "string",
          "name": "EventTitleIs",
          "type": "string"
        },
        {
          "internalType": "string",
          "name": "CommitmentTitleIs",
          "type": "string"
        }
      ],
      "stateMutability": "view",
      "type": "function",
      "constant": true
    },
    {
      "inputs": [
        {
          "internalType": "uint256",
          "name": "_index",
          "type": "uint256"
        },
        {
          "internalType": "string",
          "name": "_title",
          "type": "string"
        }
      ],
      "name": "doAction",
      "outputs": [],
      "stateMutability": "nonpayable",
      "type": "function"
    },
    {
      "inputs": [],
      "name": "ifConstraint",
      "outputs": [],
      "stateMutability": "nonpayable",
      "type": "function"
    }
  ],
  "bytecode": "0x6080604052336000806101000a81548173ffffffffffffffffffffffffffffffffffffffff021916908373ffffffffffffffffffffffffffffffffffffffff16021790555034801561005057600080fd5b50336000806101000a81548173ffffffffffffffffffffffffffffffffffffffff021916908373ffffffffffffffffffffffffffffffffffffffff160217905550611740806100a06000396000f3fe608060405234801561001057600080fd5b50600436106100a5576000357c010000000000000000000000000000000000000000000000000000000090048063af35e0e411610078578063af35e0e41461011e578063be1ebd9a14610128578063bf73ae6e1461015a578063e257a94c14610176576100a5565b80630cb13c23146100aa5780637f6d7712146100c6578063827791b0146100d0578063a905029c14610102575b600080fd5b6100c460048036038101906100bf91906111eb565b610192565b005b6100ce6101fc565b005b6100ea60048036038101906100e5919061107b565b6103bc565b6040516100f99392919061140d565b60405180910390f35b61011c60048036038101906101179190611128565b610708565b005b6101266108fa565b005b610142600480360381019061013d919061107b565b6108fc565b6040516101519392919061140d565b60405180910390f35b610174600480360381019061016f91906110bc565b610c48565b005b610190600480360381019061018b91906110bc565b610db5565b005b6000600483815481106101ce577f4e487b7100000000000000000000000000000000000000000000000000000000600052603260045260246000fd5b90600052602060002090600502019050818160030190805190602001906101f6929190610f5b565b50505050565b60005b6005805490508110156103b9577f019d0524820424c5bb50a0a677f1b41d80b9845dda922803491cff4d062d8a5a60058281548110610267577f4e487b7100000000000000000000000000000000000000000000000000000000600052603260045260246000fd5b9060005260206000209060030201600001600583815481106102b2577f4e487b7100000000000000000000000000000000000000000000000000000000600052603260045260246000fd5b90600052602060002090600302016001016040516102d19291906114ba565b60405180910390a17f019d0524820424c5bb50a0a677f1b41d80b9845dda922803491cff4d062d8a5a60048281548110610334577f4e487b7100000000000000000000000000000000000000000000000000000000600052603260045260246000fd5b90600052602060002090600502016000016004838154811061037f577f4e487b7100000000000000000000000000000000000000000000000000000000600052603260045260246000fd5b906000526020600020906005020160030160405161039e9291906114ba565b60405180910390a180806103b19061160c565b9150506101ff565b50565b606080606080606060005b60058054905081101561055c57866040516020016103e591906113a8565b6040516020818303038152906040528051906020012060058281548110610435577f4e487b7100000000000000000000000000000000000000000000000000000000600052603260045260246000fd5b906000526020600020906003020160000160405160200161045691906113bf565b60405160208183030381529060405280519060200120141561054957600581815481106104ac577f4e487b7100000000000000000000000000000000000000000000000000000000600052603260045260246000fd5b906000526020600020906003020160010180546104c8906115da565b80601f01602080910402602001604051908101604052809291908181526020018280546104f4906115da565b80156105415780601f1061051657610100808354040283529160200191610541565b820191906000526020600020905b81548152906001019060200180831161052457829003601f168201915b505050505092505b80806105549061160c565b9150506103c7565b5060005b6004805490508110156106f5578660405160200161057e91906113a8565b60405160208183030381529060405280519060200120600482815481106105ce577f4e487b7100000000000000000000000000000000000000000000000000000000600052603260045260246000fd5b90600052602060002090600502016000016040516020016105ef91906113bf565b6040516020818303038152906040528051906020012014156106e25760048181548110610645577f4e487b7100000000000000000000000000000000000000000000000000000000600052603260045260246000fd5b90600052602060002090600502016003018054610661906115da565b80601f016020809104026020016040519081016040528092919081815260200182805461068d906115da565b80156106da5780601f106106af576101008083540402835291602001916106da565b820191906000526020600020905b8154815290600101906020018083116106bd57829003601f168201915b505050505091505b80806106ed9061160c565b915050610560565b5085828294509450945050509193909250565b60008054906101000a900473ffffffffffffffffffffffffffffffffffffffff1673ffffffffffffffffffffffffffffffffffffffff163373ffffffffffffffffffffffffffffffffffffffff161461076057600080fd5b60046040518060a00160405280868152602001858152602001848152602001838152602001600060028111156107bf577f4e487b7100000000000000000000000000000000000000000000000000000000600052602160045260246000fd5b81525090806001815401808255809150506001900390600052602060002090600502016000909190919091506000820151816000019080519060200190610807929190610f5b565b506020820151816001019080519060200190610824929190610f5b565b506040820151816002019080519060200190610841929190610f5b565b50606082015181600301908051906020019061085e929190610f5b565b5060808201518160040160006101000a81548160ff021916908360028111156108b0577f4e487b7100000000000000000000000000000000000000000000000000000000600052602160045260246000fd5b021790555050507f02a0830170492857c555fbb66facd01c8d0cf5dab260f76b5a8de53e50b1bc5e848484846040516108ec9493929190611459565b60405180910390a150505050565b565b606080606080606060005b600580549050811015610a9c578660405160200161092591906113a8565b6040516020818303038152906040528051906020012060058281548110610975577f4e487b7100000000000000000000000000000000000000000000000000000000600052603260045260246000fd5b906000526020600020906003020160000160405160200161099691906113bf565b604051602081830303815290604052805190602001201415610a8957600581815481106109ec577f4e487b7100000000000000000000000000000000000000000000000000000000600052603260045260246000fd5b90600052602060002090600302016001018054610a08906115da565b80601f0160208091040260200160405190810160405280929190818152602001828054610a34906115da565b8015610a815780601f10610a5657610100808354040283529160200191610a81565b820191906000526020600020905b815481529060010190602001808311610a6457829003601f168201915b505050505092505b8080610a949061160c565b915050610907565b5060005b600480549050811015610c355786604051602001610abe91906113a8565b6040516020818303038152906040528051906020012060048281548110610b0e577f4e487b7100000000000000000000000000000000000000000000000000000000600052603260045260246000fd5b9060005260206000209060050201600001604051602001610b2f91906113bf565b604051602081830303815290604052805190602001201415610c225760048181548110610b85577f4e487b7100000000000000000000000000000000000000000000000000000000600052603260045260246000fd5b90600052602060002090600502016003018054610ba1906115da565b80601f0160208091040260200160405190810160405280929190818152602001828054610bcd906115da565b8015610c1a5780601f10610bef57610100808354040283529160200191610c1a565b820191906000526020600020905b815481529060010190602001808311610bfd57829003601f168201915b505050505091505b8080610c2d9061160c565b915050610aa0565b5085828294509450945050509193909250565b60008054906101000a900473ffffffffffffffffffffffffffffffffffffffff1673ffffffffffffffffffffffffffffffffffffffff163373ffffffffffffffffffffffffffffffffffffffff1614610ca057600080fd5b6006604051806060016040528084815260200183815260200160006002811115610cf3577f4e487b7100000000000000000000000000000000000000000000000000000000600052602160045260246000fd5b81525090806001815401808255809150506001900390600052602060002090600302016000909190919091506000820151816000019080519060200190610d3b929190610f5b565b506020820151816001019080519060200190610d58929190610f5b565b5060408201518160020160006101000a81548160ff02191690836002811115610daa577f4e487b7100000000000000000000000000000000000000000000000000000000600052602160045260246000fd5b021790555050505050565b60008054906101000a900473ffffffffffffffffffffffffffffffffffffffff1673ffffffffffffffffffffffffffffffffffffffff163373ffffffffffffffffffffffffffffffffffffffff1614610e0d57600080fd5b6005604051806060016040528084815260200183815260200160006001811115610e60577f4e487b7100000000000000000000000000000000000000000000000000000000600052602160045260246000fd5b81525090806001815401808255809150506001900390600052602060002090600302016000909190919091506000820151816000019080519060200190610ea8929190610f5b565b506020820151816001019080519060200190610ec5929190610f5b565b5060408201518160020160006101000a81548160ff02191690836001811115610f17577f4e487b7100000000000000000000000000000000000000000000000000000000600052602160045260246000fd5b021790555050507ffa7c3b4f66a50cd5f5a338ffce7fbed8b1c64fb92c3fb1127dc2cc3244a569448282604051610f4f9291906113d6565b60405180910390a15050565b828054610f67906115da565b90600052602060002090601f016020900481019282610f895760008555610fd0565b82601f10610fa257805160ff1916838001178555610fd0565b82800160010185558215610fd0579182015b82811115610fcf578251825591602001919060010190610fb4565b5b509050610fdd9190610fe1565b5090565b5b80821115610ffa576000816000905550600101610fe2565b5090565b600061101161100c84611522565b6114f1565b90508281526020810184848401111561102957600080fd5b611034848285611598565b509392505050565b600082601f83011261104d57600080fd5b813561105d848260208601610ffe565b91505092915050565b600081359050611075816116f3565b92915050565b60006020828403121561108d57600080fd5b600082013567ffffffffffffffff8111156110a757600080fd5b6110b38482850161103c565b91505092915050565b600080604083850312156110cf57600080fd5b600083013567ffffffffffffffff8111156110e957600080fd5b6110f58582860161103c565b925050602083013567ffffffffffffffff81111561111257600080fd5b61111e8582860161103c565b9150509250929050565b6000806000806080858703121561113e57600080fd5b600085013567ffffffffffffffff81111561115857600080fd5b6111648782880161103c565b945050602085013567ffffffffffffffff81111561118157600080fd5b61118d8782880161103c565b935050604085013567ffffffffffffffff8111156111aa57600080fd5b6111b68782880161103c565b925050606085013567ffffffffffffffff8111156111d357600080fd5b6111df8782880161103c565b91505092959194509250565b600080604083850312156111fe57600080fd5b600061120c85828601611066565b925050602083013567ffffffffffffffff81111561122957600080fd5b6112358582860161103c565b9150509250929050565b600061124a82611567565b6112548185611572565b93506112648185602086016115a7565b61126d816116e2565b840191505092915050565b600061128382611567565b61128d8185611583565b935061129d8185602086016115a7565b80840191505092915050565b600081546112b6816115da565b6112c08186611572565b945060018216600081146112db57600181146112ed57611320565b60ff1983168652602086019350611320565b6112f685611552565b60005b83811015611318578154818901526001820191506020810190506112f9565b808801955050505b50505092915050565b60008154611336816115da565b6113408186611583565b9450600182166000811461135b576001811461136c5761139f565b60ff1983168652818601935061139f565b61137585611552565b60005b8381101561139757815481890152600182019150602081019050611378565b838801955050505b50505092915050565b60006113b48284611278565b915081905092915050565b60006113cb8284611329565b915081905092915050565b600060408201905081810360008301526113f0818561123f565b90508181036020830152611404818461123f565b90509392505050565b60006060820190508181036000830152611427818661123f565b9050818103602083015261143b818561123f565b9050818103604083015261144f818461123f565b9050949350505050565b60006080820190508181036000830152611473818761123f565b90508181036020830152611487818661123f565b9050818103604083015261149b818561123f565b905081810360608301526114af818461123f565b905095945050505050565b600060408201905081810360008301526114d481856112a9565b905081810360208301526114e881846112a9565b90509392505050565b6000604051905081810181811067ffffffffffffffff82111715611518576115176116b3565b5b8060405250919050565b600067ffffffffffffffff82111561153d5761153c6116b3565b5b601f19601f8301169050602081019050919050565b60008190508160005260206000209050919050565b600081519050919050565b600082825260208201905092915050565b600081905092915050565b6000819050919050565b82818337600083830152505050565b60005b838110156115c55780820151818401526020810190506115aa565b838111156115d4576000848401525b50505050565b600060028204905060018216806115f257607f821691505b6020821081141561160657611605611684565b5b50919050565b60006116178261158e565b91507fffffffffffffffffffffffffffffffffffffffffffffffffffffffffffffffff82141561164a57611649611655565b5b600182019050919050565b7f4e487b7100000000000000000000000000000000000000000000000000000000600052601160045260246000fd5b7f4e487b7100000000000000000000000000000000000000000000000000000000600052602260045260246000fd5b7f4e487b7100000000000000000000000000000000000000000000000000000000600052604160045260246000fd5b6000601f19601f8301169050919050565b6116fc8161158e565b811461170757600080fd5b5056fea264697066735822122026d4fe5a2daa16591d955edf7bfcffc12c94a1f7d213effac82321da803b0d3564736f6c63430008000033",
  "immutableReferences": {},
  "source": "// SPDX-License-Identifier: UNLICENSED \npragma solidity ^0.8.0;\n\ncontract CBSC {\n\n    /*\n       =========================================================\n\n       Commitment Based Smart Contracts\n       Prototype for PhD dissertation\n\n       Joost de Kruijff\n       j.c.dekruijff@tilburguniversity.edu\n       https://github.com/codeoffconduct/CBSC\n\n       =========================================================\n   */\n\n\n    /*\n       Rules of engagement (ROE)\n       - Properties in the ROE change the state of the blockchain\n       - Struct definitions\n       - Arrays to store the struct objects in order to work with initiated commitments, events and fluents\n   */\n\n    // address variable defining the owner\n    address internal owner = msg.sender;\n\n    //Swap roles during assignment and delegation\n    address internal x;\n    address internal y;\n    address internal z;\n\n    // State enums\n    enum EventState {Defined, Executed}\n    enum FluentState {NonFulfilled, PartialFulfilled, Fulfilled}\n    enum CommitmentState {Committed, Activated, Terminated}\n\n    // Commitment struct\n    struct Commitment {\n        string _time;\n        string _type;\n        string _category;\n        string _title;\n        CommitmentState _state;\n    }\n\n    // Event struct\n    struct Event {\n        string _time;\n        string _title;\n        EventState _state;\n    }\n\n    // Fluent struct\n    struct Fluent {\n        string _time;\n        string _title;\n        FluentState _state;\n    }\n\n    // Asset\n    struct Asset {\n        string a;\n        uint256 m;\n    }\n\n    // Array to store Commitment structs\n    Commitment[] private commitments;\n\n    // Array to store Event structs\n    Event[] private events;\n\n    // Array to store Event structs\n    Fluent[] private fluents;\n\n    // Variable to store the asset details, like the address\n    string A;\n\n    // // Variable to store the asset details, like the address\n    uint256 M;\n\n\n    /*\n        Modifiers\n    */\n\n    // Halts function if owner is not initiating the transaction\n    modifier onlyOwner {\n        require(msg.sender == owner);\n        _;\n    }\n\n\n    /*\n        Events\n        - Details per event can be found in the Log debug output of the transaction\n        - Use web3 library to interact with events and setup listeners\n    */\n\n    // Trigger event to notify outside code that a new commitment is created\n    event CommitmentCreated(\n    //output the commitment details\n        string, string, string, string\n    );\n\n    // Trigger event to notify outside code that an existing commitment is activated\n    event Activate(\n    //output the commitment details\n        string, string, string, string\n    );\n\n    // Trigger event to notify outside code that an existing commitment is terminated\n    event Terminate(\n    //output the commitment details\n        string, string, string, string\n    );\n\n    // Trigger event to notify outside code that a new event is created\n    event EventCreated(\n    //output the commitment details\n        string, string\n    );\n\n    event ProtocolRun(string, string);\n\n    /*\n        Create Functions\n    */\n\n    constructor() {\n        // Set the owner\n        owner = msg.sender;\n    }\n\n\n    // Create a Commitment\n    function createCommitment(\n        string memory time,\n        string memory type_,\n        string memory category,\n        string memory title) external onlyOwner\n    {\n        commitments.push(Commitment({\n        _time : time,\n        _type : type_,\n        _category : category,\n        _title : title,\n        _state : CommitmentState.Committed\n        }));\n\n        // Notify event triggers of new commitment\n        emit CommitmentCreated(time, type_, category, title);\n\n    }\n\n    //create an Event\n    function createEvent(string memory time, string memory title) external onlyOwner {\n        events.push(Event({\n        _time : time,\n        _title : title,\n        _state : EventState.Defined\n        }));\n\n        // Notify event triggers of new event\n        emit EventCreated(time, title);\n    }\n\n    //create an Event\n    function createFluent(string memory time, string memory title) external onlyOwner {\n        fluents.push(Fluent({\n        _title : title,\n        _time : time,\n        _state : FluentState.NonFulfilled\n        }));\n    }\n\n    /*\n        Query Functions\n    */\n\n    //query entire protocol run\n    function protocolRun() external {\n        for (uint i = 0; i < events.length; i++) {\n            emit ProtocolRun(events[i]._time, events[i]._title);\n            emit ProtocolRun(commitments[i]._time, commitments[i]._title);\n        }\n\n    }\n\n    function onTime(string memory t) external view returns (string memory TimeIs, string memory EventTitleIs, string memory CommitmentTitleIs){\n        string memory eventOnT;\n        string memory commitmentOnT;\n\n        for (uint i = 0; i < events.length; i++) {\n            if (keccak256(abi.encodePacked(events[i]._time)) == keccak256(abi.encodePacked(t))) {\n                eventOnT = events[i]._title;\n            }\n        }\n\n        for (uint i = 0; i < commitments.length; i++) {\n            if (keccak256(abi.encodePacked(commitments[i]._time)) == keccak256(abi.encodePacked(t))) {\n                commitmentOnT = commitments[i]._title;\n            }\n        }\n        return (t, eventOnT, commitmentOnT);\n    }\n\n    /*\n        KR Reaction RuleML forward chaining\n    */\n\n    // Event trigger\n    function onEvent(string memory t) external view returns (string memory TimeIs, string memory EventTitleIs, string memory CommitmentTitleIs){\n        string memory eventOnT;\n        string memory commitmentOnT;\n\n        for (uint i = 0; i < events.length; i++) {\n            if (keccak256(abi.encodePacked(events[i]._time)) == keccak256(abi.encodePacked(t))) {\n                eventOnT = events[i]._title;\n            }\n        }\n\n        for (uint i = 0; i < commitments.length; i++) {\n            if (keccak256(abi.encodePacked(commitments[i]._time)) == keccak256(abi.encodePacked(t))) {\n                commitmentOnT = commitments[i]._title;\n            }\n        }\n        return (t, eventOnT, commitmentOnT);\n    }\n\n    // Perform action to manipulate commitments through smart contract state\n    function doAction(uint _index, string memory _title) public {\n        Commitment storage commitment = commitments[_index];\n        commitment._title = _title;\n    }\n\n    // Verify HoldsAt condition\n    function ifConstraint() public {\n        //TODO\n    }\n\n}",
  "sourcePath": "/Users/jc/Documents/Code/Truffle/CBSC/contracts/CBSC.sol",
  "compiler": {
    "name": "solc",
    "version": "0.8.0+commit.c7dfd78e.Emscripten.clang"
  },
  "schemaVersion": "3.4.2",
  "updatedAt": "2021-07-25T14:37:48.654Z",
  "networkType": "ethereum",
  "devdoc": {
    "kind": "dev",
    "methods": {},
    "version": 1
  },
  "userdoc": {
    "kind": "user",
    "methods": {},
    "version": 1
  }
}