{
  "contractName": "CBSC",
  "abi": [
    {
      "inputs": [],
      "stateMutability": "nonpayable",
      "type": "constructor"
    },
    {
      "anonymous": false,
      "inputs": [
        {
          "indexed": false,
          "internalType": "string",
          "name": "",
          "type": "string"
        },
        {
          "indexed": false,
          "internalType": "string",
          "name": "",
          "type": "string"
        },
        {
          "indexed": false,
          "internalType": "string",
          "name": "",
          "type": "string"
        },
        {
          "indexed": false,
          "internalType": "string",
          "name": "",
          "type": "string"
        }
      ],
      "name": "Activate",
      "type": "event"
    },
    {
      "anonymous": false,
      "inputs": [
        {
          "indexed": false,
          "internalType": "string",
          "name": "",
          "type": "string"
        },
        {
          "indexed": false,
          "internalType": "string",
          "name": "",
          "type": "string"
        },
        {
          "indexed": false,
          "internalType": "string",
          "name": "",
          "type": "string"
        },
        {
          "indexed": false,
          "internalType": "string",
          "name": "",
          "type": "string"
        }
      ],
      "name": "CommitmentCreated",
      "type": "event"
    },
    {
      "anonymous": false,
      "inputs": [
        {
          "indexed": false,
          "internalType": "string",
          "name": "",
          "type": "string"
        },
        {
          "indexed": false,
          "internalType": "string",
          "name": "",
          "type": "string"
        }
      ],
      "name": "EventCreated",
      "type": "event"
    },
    {
      "anonymous": false,
      "inputs": [
        {
          "indexed": false,
          "internalType": "string",
          "name": "",
          "type": "string"
        },
        {
          "indexed": false,
          "internalType": "string",
          "name": "",
          "type": "string"
        }
      ],
      "name": "ProtocolRun",
      "type": "event"
    },
    {
      "anonymous": false,
      "inputs": [
        {
          "indexed": false,
          "internalType": "string",
          "name": "",
          "type": "string"
        },
        {
          "indexed": false,
          "internalType": "string",
          "name": "",
          "type": "string"
        },
        {
          "indexed": false,
          "internalType": "string",
          "name": "",
          "type": "string"
        },
        {
          "indexed": false,
          "internalType": "string",
          "name": "",
          "type": "string"
        }
      ],
      "name": "Terminate",
      "type": "event"
    },
    {
      "inputs": [
        {
          "internalType": "string",
          "name": "time",
          "type": "string"
        },
        {
          "internalType": "string",
          "name": "type_",
          "type": "string"
        },
        {
          "internalType": "string",
          "name": "category",
          "type": "string"
        },
        {
          "internalType": "string",
          "name": "title",
          "type": "string"
        }
      ],
      "name": "createCommitment",
      "outputs": [],
      "stateMutability": "nonpayable",
      "type": "function"
    },
    {
      "inputs": [
        {
          "internalType": "string",
          "name": "time",
          "type": "string"
        },
        {
          "internalType": "string",
          "name": "title",
          "type": "string"
        }
      ],
      "name": "createEvent",
      "outputs": [],
      "stateMutability": "nonpayable",
      "type": "function"
    },
    {
      "inputs": [
        {
          "internalType": "string",
          "name": "time",
          "type": "string"
        },
        {
          "internalType": "string",
          "name": "title",
          "type": "string"
        }
      ],
      "name": "createFluent",
      "outputs": [],
      "stateMutability": "nonpayable",
      "type": "function"
    },
    {
      "inputs": [],
      "name": "protocolRun",
      "outputs": [],
      "stateMutability": "nonpayable",
      "type": "function"
    },
    {
      "inputs": [
        {
          "internalType": "string",
          "name": "t",
          "type": "string"
        }
      ],
      "name": "onTime",
      "outputs": [
        {
          "internalType": "string",
          "name": "TimeIs",
          "type": "string"
        },
        {
          "internalType": "string",
          "name": "EventTitleIs",
          "type": "string"
        },
        {
          "internalType": "string",
          "name": "CommitmentTitleIs",
          "type": "string"
        }
      ],
      "stateMutability": "view",
      "type": "function"
    },
    {
      "inputs": [
        {
          "internalType": "string",
          "name": "t",
          "type": "string"
        }
      ],
      "name": "onEvent",
      "outputs": [
        {
          "internalType": "string",
          "name": "TimeIs",
          "type": "string"
        },
        {
          "internalType": "string",
          "name": "EventTitleIs",
          "type": "string"
        },
        {
          "internalType": "string",
          "name": "CommitmentTitleIs",
          "type": "string"
        }
      ],
      "stateMutability": "view",
      "type": "function"
    },
    {
      "inputs": [
        {
          "internalType": "uint256",
          "name": "_index",
          "type": "uint256"
        },
        {
          "internalType": "string",
          "name": "_title",
          "type": "string"
        }
      ],
      "name": "doAction",
      "outputs": [],
      "stateMutability": "nonpayable",
      "type": "function"
    },
    {
      "inputs": [],
      "name": "ifConstraint",
      "outputs": [],
      "stateMutability": "nonpayable",
      "type": "function"
    }
  ],
  "bytecode": "0x6080604052336000806101000a81548173ffffffffffffffffffffffffffffffffffffffff021916908373ffffffffffffffffffffffffffffffffffffffff16021790555034801561005057600080fd5b50336000806101000a81548173ffffffffffffffffffffffffffffffffffffffff021916908373ffffffffffffffffffffffffffffffffffffffff160217905550611723806100a06000396000f3fe608060405234801561001057600080fd5b50600436106100885760003560e01c8063af35e0e41161005b578063af35e0e414610101578063be1ebd9a1461010b578063bf73ae6e1461013d578063e257a94c1461015957610088565b80630cb13c231461008d5780637f6d7712146100a9578063827791b0146100b3578063a905029c146100e5575b600080fd5b6100a760048036038101906100a291906111ce565b610175565b005b6100b16101df565b005b6100cd60048036038101906100c8919061105e565b61039f565b6040516100dc939291906113f0565b60405180910390f35b6100ff60048036038101906100fa919061110b565b6106eb565b005b6101096108dd565b005b6101256004803603810190610120919061105e565b6108df565b604051610134939291906113f0565b60405180910390f35b6101576004803603810190610152919061109f565b610c2b565b005b610173600480360381019061016e919061109f565b610d98565b005b6000600483815481106101b1577f4e487b7100000000000000000000000000000000000000000000000000000000600052603260045260246000fd5b90600052602060002090600502019050818160030190805190602001906101d9929190610f3e565b50505050565b60005b60058054905081101561039c577f019d0524820424c5bb50a0a677f1b41d80b9845dda922803491cff4d062d8a5a6005828154811061024a577f4e487b7100000000000000000000000000000000000000000000000000000000600052603260045260246000fd5b906000526020600020906003020160000160058381548110610295577f4e487b7100000000000000000000000000000000000000000000000000000000600052603260045260246000fd5b90600052602060002090600302016001016040516102b492919061149d565b60405180910390a17f019d0524820424c5bb50a0a677f1b41d80b9845dda922803491cff4d062d8a5a60048281548110610317577f4e487b7100000000000000000000000000000000000000000000000000000000600052603260045260246000fd5b906000526020600020906005020160000160048381548110610362577f4e487b7100000000000000000000000000000000000000000000000000000000600052603260045260246000fd5b906000526020600020906005020160030160405161038192919061149d565b60405180910390a18080610394906115ef565b9150506101e2565b50565b606080606080606060005b60058054905081101561053f57866040516020016103c8919061138b565b6040516020818303038152906040528051906020012060058281548110610418577f4e487b7100000000000000000000000000000000000000000000000000000000600052603260045260246000fd5b906000526020600020906003020160000160405160200161043991906113a2565b60405160208183030381529060405280519060200120141561052c576005818154811061048f577f4e487b7100000000000000000000000000000000000000000000000000000000600052603260045260246000fd5b906000526020600020906003020160010180546104ab906115bd565b80601f01602080910402602001604051908101604052809291908181526020018280546104d7906115bd565b80156105245780601f106104f957610100808354040283529160200191610524565b820191906000526020600020905b81548152906001019060200180831161050757829003601f168201915b505050505092505b8080610537906115ef565b9150506103aa565b5060005b6004805490508110156106d85786604051602001610561919061138b565b60405160208183030381529060405280519060200120600482815481106105b1577f4e487b7100000000000000000000000000000000000000000000000000000000600052603260045260246000fd5b90600052602060002090600502016000016040516020016105d291906113a2565b6040516020818303038152906040528051906020012014156106c55760048181548110610628577f4e487b7100000000000000000000000000000000000000000000000000000000600052603260045260246000fd5b90600052602060002090600502016003018054610644906115bd565b80601f0160208091040260200160405190810160405280929190818152602001828054610670906115bd565b80156106bd5780601f10610692576101008083540402835291602001916106bd565b820191906000526020600020905b8154815290600101906020018083116106a057829003601f168201915b505050505091505b80806106d0906115ef565b915050610543565b5085828294509450945050509193909250565b60008054906101000a900473ffffffffffffffffffffffffffffffffffffffff1673ffffffffffffffffffffffffffffffffffffffff163373ffffffffffffffffffffffffffffffffffffffff161461074357600080fd5b60046040518060a00160405280868152602001858152602001848152602001838152602001600060028111156107a2577f4e487b7100000000000000000000000000000000000000000000000000000000600052602160045260246000fd5b815250908060018154018082558091505060019003906000526020600020906005020160009091909190915060008201518160000190805190602001906107ea929190610f3e565b506020820151816001019080519060200190610807929190610f3e565b506040820151816002019080519060200190610824929190610f3e565b506060820151816003019080519060200190610841929190610f3e565b5060808201518160040160006101000a81548160ff02191690836002811115610893577f4e487b7100000000000000000000000000000000000000000000000000000000600052602160045260246000fd5b021790555050507f02a0830170492857c555fbb66facd01c8d0cf5dab260f76b5a8de53e50b1bc5e848484846040516108cf949392919061143c565b60405180910390a150505050565b565b606080606080606060005b600580549050811015610a7f5786604051602001610908919061138b565b6040516020818303038152906040528051906020012060058281548110610958577f4e487b7100000000000000000000000000000000000000000000000000000000600052603260045260246000fd5b906000526020600020906003020160000160405160200161097991906113a2565b604051602081830303815290604052805190602001201415610a6c57600581815481106109cf577f4e487b7100000000000000000000000000000000000000000000000000000000600052603260045260246000fd5b906000526020600020906003020160010180546109eb906115bd565b80601f0160208091040260200160405190810160405280929190818152602001828054610a17906115bd565b8015610a645780601f10610a3957610100808354040283529160200191610a64565b820191906000526020600020905b815481529060010190602001808311610a4757829003601f168201915b505050505092505b8080610a77906115ef565b9150506108ea565b5060005b600480549050811015610c185786604051602001610aa1919061138b565b6040516020818303038152906040528051906020012060048281548110610af1577f4e487b7100000000000000000000000000000000000000000000000000000000600052603260045260246000fd5b9060005260206000209060050201600001604051602001610b1291906113a2565b604051602081830303815290604052805190602001201415610c055760048181548110610b68577f4e487b7100000000000000000000000000000000000000000000000000000000600052603260045260246000fd5b90600052602060002090600502016003018054610b84906115bd565b80601f0160208091040260200160405190810160405280929190818152602001828054610bb0906115bd565b8015610bfd5780601f10610bd257610100808354040283529160200191610bfd565b820191906000526020600020905b815481529060010190602001808311610be057829003601f168201915b505050505091505b8080610c10906115ef565b915050610a83565b5085828294509450945050509193909250565b60008054906101000a900473ffffffffffffffffffffffffffffffffffffffff1673ffffffffffffffffffffffffffffffffffffffff163373ffffffffffffffffffffffffffffffffffffffff1614610c8357600080fd5b6006604051806060016040528084815260200183815260200160006002811115610cd6577f4e487b7100000000000000000000000000000000000000000000000000000000600052602160045260246000fd5b81525090806001815401808255809150506001900390600052602060002090600302016000909190919091506000820151816000019080519060200190610d1e929190610f3e565b506020820151816001019080519060200190610d3b929190610f3e565b5060408201518160020160006101000a81548160ff02191690836002811115610d8d577f4e487b7100000000000000000000000000000000000000000000000000000000600052602160045260246000fd5b021790555050505050565b60008054906101000a900473ffffffffffffffffffffffffffffffffffffffff1673ffffffffffffffffffffffffffffffffffffffff163373ffffffffffffffffffffffffffffffffffffffff1614610df057600080fd5b6005604051806060016040528084815260200183815260200160006001811115610e43577f4e487b7100000000000000000000000000000000000000000000000000000000600052602160045260246000fd5b81525090806001815401808255809150506001900390600052602060002090600302016000909190919091506000820151816000019080519060200190610e8b929190610f3e565b506020820151816001019080519060200190610ea8929190610f3e565b5060408201518160020160006101000a81548160ff02191690836001811115610efa577f4e487b7100000000000000000000000000000000000000000000000000000000600052602160045260246000fd5b021790555050507ffa7c3b4f66a50cd5f5a338ffce7fbed8b1c64fb92c3fb1127dc2cc3244a569448282604051610f329291906113b9565b60405180910390a15050565b828054610f4a906115bd565b90600052602060002090601f016020900481019282610f6c5760008555610fb3565b82601f10610f8557805160ff1916838001178555610fb3565b82800160010185558215610fb3579182015b82811115610fb2578251825591602001919060010190610f97565b5b509050610fc09190610fc4565b5090565b5b80821115610fdd576000816000905550600101610fc5565b5090565b6000610ff4610fef84611505565b6114d4565b90508281526020810184848401111561100c57600080fd5b61101784828561157b565b509392505050565b600082601f83011261103057600080fd5b8135611040848260208601610fe1565b91505092915050565b600081359050611058816116d6565b92915050565b60006020828403121561107057600080fd5b600082013567ffffffffffffffff81111561108a57600080fd5b6110968482850161101f565b91505092915050565b600080604083850312156110b257600080fd5b600083013567ffffffffffffffff8111156110cc57600080fd5b6110d88582860161101f565b925050602083013567ffffffffffffffff8111156110f557600080fd5b6111018582860161101f565b9150509250929050565b6000806000806080858703121561112157600080fd5b600085013567ffffffffffffffff81111561113b57600080fd5b6111478782880161101f565b945050602085013567ffffffffffffffff81111561116457600080fd5b6111708782880161101f565b935050604085013567ffffffffffffffff81111561118d57600080fd5b6111998782880161101f565b925050606085013567ffffffffffffffff8111156111b657600080fd5b6111c28782880161101f565b91505092959194509250565b600080604083850312156111e157600080fd5b60006111ef85828601611049565b925050602083013567ffffffffffffffff81111561120c57600080fd5b6112188582860161101f565b9150509250929050565b600061122d8261154a565b6112378185611555565b935061124781856020860161158a565b611250816116c5565b840191505092915050565b60006112668261154a565b6112708185611566565b935061128081856020860161158a565b80840191505092915050565b60008154611299816115bd565b6112a38186611555565b945060018216600081146112be57600181146112d057611303565b60ff1983168652602086019350611303565b6112d985611535565b60005b838110156112fb578154818901526001820191506020810190506112dc565b808801955050505b50505092915050565b60008154611319816115bd565b6113238186611566565b9450600182166000811461133e576001811461134f57611382565b60ff19831686528186019350611382565b61135885611535565b60005b8381101561137a5781548189015260018201915060208101905061135b565b838801955050505b50505092915050565b6000611397828461125b565b915081905092915050565b60006113ae828461130c565b915081905092915050565b600060408201905081810360008301526113d38185611222565b905081810360208301526113e78184611222565b90509392505050565b6000606082019050818103600083015261140a8186611222565b9050818103602083015261141e8185611222565b905081810360408301526114328184611222565b9050949350505050565b600060808201905081810360008301526114568187611222565b9050818103602083015261146a8186611222565b9050818103604083015261147e8185611222565b905081810360608301526114928184611222565b905095945050505050565b600060408201905081810360008301526114b7818561128c565b905081810360208301526114cb818461128c565b90509392505050565b6000604051905081810181811067ffffffffffffffff821117156114fb576114fa611696565b5b8060405250919050565b600067ffffffffffffffff8211156115205761151f611696565b5b601f19601f8301169050602081019050919050565b60008190508160005260206000209050919050565b600081519050919050565b600082825260208201905092915050565b600081905092915050565b6000819050919050565b82818337600083830152505050565b60005b838110156115a857808201518184015260208101905061158d565b838111156115b7576000848401525b50505050565b600060028204905060018216806115d557607f821691505b602082108114156115e9576115e8611667565b5b50919050565b60006115fa82611571565b91507fffffffffffffffffffffffffffffffffffffffffffffffffffffffffffffffff82141561162d5761162c611638565b5b600182019050919050565b7f4e487b7100000000000000000000000000000000000000000000000000000000600052601160045260246000fd5b7f4e487b7100000000000000000000000000000000000000000000000000000000600052602260045260246000fd5b7f4e487b7100000000000000000000000000000000000000000000000000000000600052604160045260246000fd5b6000601f19601f8301169050919050565b6116df81611571565b81146116ea57600080fd5b5056fea2646970667358221220697ad247d215e5e0edb6367a2fa4fae93a6df998adcab03589efe544495b78fe64736f6c63430008000033",
  "immutableReferences": {},
  "source": "// SPDX-License-Identifier: UNLICENSED \npragma solidity ^0.8.0;\n\ncontract CBSC {\n    \n     /*\n        =========================================================\n\n        Commitment Based Smart Contracts\n        v.0.1\n        \n        Joost de Kruijff\n        j.c.dekruijff@tilburguniversity.edu\n        https://github.com/codeoffconduct/CBSC/blob/main/CBSC.sol\n\n        =========================================================\n    */\n    \n    \n     /*\n        Rules of engagement (ROE)\n        - Properties in the ROE change the state of the blockchain\n        - Struct definitions\n        - Arrays to store the struct objects in order to work with initiated commitments, events and fluents\n    */\n\n    // address variable defining the owner \n    address internal owner = msg.sender;\n    \n    //Swap roles during assignment and delegation\n    address internal x;\n    address internal y;\n    address internal z;\n\n    // State enums\n    enum EventState { Defined, Executed }\n    enum FluentState { NonFulfilled, PartialFulfilled, Fulfilled }\n    enum CommitmentState { Committed, Activated, Terminated }\n\n    // Commitment struct\n    struct Commitment {\n        string _time;\n        string _type;\n        string _category;\n        string _title; \n        CommitmentState _state;\n    }\n    \n    // Event struct\n    struct Event {\n        string _time;\n        string _title;\n        EventState _state;\n    }\n\n    // Fluent struct\n    struct Fluent {\n        string _time;\n        string _title;\n        FluentState _state;\n    }\n\n    // Asset\n    struct Asset {\n        string a;\n        uint256 m;\n    }\n \n    // Array to store Commitment structs\n    Commitment[] private commitments;\n    \n    // Array to store Event structs\n    Event[] private events;\n\n    // Array to store Event structs\n    Fluent[] private fluents;\n\n    // Variable to store the asset details, like the address\n    string A;\n\n    // // Variable to store the asset details, like the address\n    uint256 M;\n    \n    \n    /*\n        Modifiers\n    */\n\n    // Halts function if owner is not initiating the transaction\n    modifier onlyOwner {\n        require(msg.sender == owner);\n        _;\n    }\n    \n    \n    /*\n        Events\n        - Details per event can be found in the Log debug output of the transaction\n        - Use web3 library to interact with events and setup listeners\n    */\n    \n    // Trigger event to notify outside code that a new commitment is created\n    event CommitmentCreated(\n        //output the commitment details\n            string, string, string, string\n        );\n\n    // Trigger event to notify outside code that an existing commitment is activated\n    event Activate(\n        //output the commitment details\n            string, string, string, string\n        );\n\n    // Trigger event to notify outside code that an existing commitment is terminated\n    event Terminate(\n        //output the commitment details\n            string, string, string, string\n        );\n\n    // Trigger event to notify outside code that a new event is created\n    event EventCreated(\n        //output the commitment details\n            string, string\n        );\n\n    event ProtocolRun(string, string);\n    \n    /*\n        Create Functions\n    */\n\n    constructor() {\n        \n        // Set the owner\n        owner = msg.sender;\n         \n    }\n\n\n    // Create a Commitment\n    function createCommitment(\n        string memory time, \n        string memory type_, \n        string memory category, \n        string memory title) external onlyOwner \n        {\n        commitments.push(Commitment({\n            _time: time,\n            _type: type_,\n            _category: category,\n            _title: title,\n            _state: CommitmentState.Committed\n        }));\n\n        // Notify event triggers of new commitment\n        emit CommitmentCreated(time , type_, category, title);\n\n    }\n    \n    //create an Event\n    function createEvent(string memory time, string memory title) external onlyOwner {\n        events.push(Event({\n            _time: time,\n            _title: title,\n            _state: EventState.Defined\n        }));\n        \n        // Notify event triggers of new event\n        emit EventCreated(time, title);\n    }\n\n    //create an Event\n    function createFluent(string memory time, string memory title) external onlyOwner {\n        fluents.push(Fluent({\n            _title: title,\n            _time: time,\n            _state: FluentState.NonFulfilled\n        }));\n    }\n\n    /*\n        Query Functions\n    */\n\n    //query entire protocol run\n    function protocolRun() external {\n        for(uint i = 0; i < events.length; i++) {\n            emit ProtocolRun(events[i]._time, events[i]._title);\n            emit ProtocolRun(commitments[i]._time, commitments[i]._title);\n        }\n        \n    }\n    \n    function onTime(string memory t) external view returns(string memory TimeIs, string memory EventTitleIs, string memory CommitmentTitleIs){\n        string memory eventOnT;\n        string memory commitmentOnT;\n        \n        for(uint i = 0; i < events.length; i++) {\n            if(keccak256(abi.encodePacked(events[i]._time)) == keccak256(abi.encodePacked(t))){\n                eventOnT = events[i]._title;\n            }\n        }\n        \n        for(uint i = 0; i < commitments.length; i++) {\n            if(keccak256(abi.encodePacked(commitments[i]._time)) == keccak256(abi.encodePacked(t))){\n                commitmentOnT = commitments[i]._title;\n            }\n        }\n        return(t, eventOnT, commitmentOnT);\n    }\n\n    /*\n        KR Reaction RuleML forward chainining\n    */\n\n    // Event trigger\n    \n    function onEvent(string memory t) external view returns(string memory TimeIs, string memory EventTitleIs, string memory CommitmentTitleIs){\n        string memory eventOnT;\n        string memory commitmentOnT;\n        \n        for(uint i = 0; i < events.length; i++) {\n            if(keccak256(abi.encodePacked(events[i]._time)) == keccak256(abi.encodePacked(t))){\n                eventOnT = events[i]._title;\n            }\n        }\n        \n        for(uint i = 0; i < commitments.length; i++) {\n            if(keccak256(abi.encodePacked(commitments[i]._time)) == keccak256(abi.encodePacked(t))){\n                commitmentOnT = commitments[i]._title;\n            }\n        }\n        return(t, eventOnT, commitmentOnT);\n    }\n    \n    // Perform action to manipulate commitments through smart contract state\n    function doAction(uint _index, string memory _title) public {\n        Commitment storage commitment = commitments[_index];\n        commitment._title = _title;\n    }\n\n    // Verify HoldsAt condition\n    function ifConstraint() public {\n        //TODO\n    }\n\n}",
  "sourcePath": "/Users/jc/Documents/Code/Truffle/CBSC/contracts/CBSC.sol",
  "compiler": {
    "name": "solc",
    "version": "0.8.0+commit.c7dfd78e.Emscripten.clang"
  },
  "schemaVersion": "3.4.2",
  "updatedAt": "2021-07-25T01:42:02.486Z",
  "devdoc": {
    "kind": "dev",
    "methods": {},
    "version": 1
  },
  "userdoc": {
    "kind": "user",
    "methods": {},
    "version": 1
  }
}