{
  "contractName": "CBSC",
  "abi": [
    {
      "inputs": [],
      "stateMutability": "nonpayable",
      "type": "constructor"
    },
    {
      "anonymous": false,
      "inputs": [
        {
          "indexed": false,
          "internalType": "string",
          "name": "",
          "type": "string"
        }
      ],
      "name": "CommitmentStateLog",
      "type": "event"
    },
    {
      "anonymous": false,
      "inputs": [
        {
          "indexed": false,
          "internalType": "string",
          "name": "",
          "type": "string"
        },
        {
          "indexed": false,
          "internalType": "string",
          "name": "",
          "type": "string"
        }
      ],
      "name": "EventStateLog",
      "type": "event"
    },
    {
      "anonymous": false,
      "inputs": [
        {
          "indexed": false,
          "internalType": "string",
          "name": "",
          "type": "string"
        },
        {
          "indexed": false,
          "internalType": "string",
          "name": "",
          "type": "string"
        }
      ],
      "name": "FluentStateLog",
      "type": "event"
    },
    {
      "anonymous": false,
      "inputs": [
        {
          "indexed": false,
          "internalType": "string",
          "name": "",
          "type": "string"
        },
        {
          "indexed": false,
          "internalType": "string",
          "name": "",
          "type": "string"
        },
        {
          "indexed": false,
          "internalType": "uint256",
          "name": "",
          "type": "uint256"
        }
      ],
      "name": "ProtocolRun",
      "type": "event"
    },
    {
      "inputs": [
        {
          "internalType": "string",
          "name": "test",
          "type": "string"
        }
      ],
      "name": "Test",
      "outputs": [],
      "stateMutability": "nonpayable",
      "type": "function"
    },
    {
      "inputs": [
        {
          "internalType": "string",
          "name": "time",
          "type": "string"
        },
        {
          "internalType": "enum CBSC.CommitmentType",
          "name": "type_",
          "type": "uint8"
        },
        {
          "internalType": "enum CBSC.CommitmentCategory",
          "name": "category",
          "type": "uint8"
        },
        {
          "internalType": "string",
          "name": "title",
          "type": "string"
        }
      ],
      "name": "Commit",
      "outputs": [],
      "stateMutability": "nonpayable",
      "type": "function"
    },
    {
      "inputs": [
        {
          "internalType": "string",
          "name": "time",
          "type": "string"
        },
        {
          "internalType": "uint256",
          "name": "index_",
          "type": "uint256"
        },
        {
          "internalType": "string",
          "name": "title",
          "type": "string"
        }
      ],
      "name": "Activate",
      "outputs": [],
      "stateMutability": "nonpayable",
      "type": "function"
    },
    {
      "inputs": [],
      "name": "Delegate",
      "outputs": [],
      "stateMutability": "nonpayable",
      "type": "function"
    },
    {
      "inputs": [],
      "name": "Assign",
      "outputs": [],
      "stateMutability": "nonpayable",
      "type": "function"
    },
    {
      "inputs": [],
      "name": "Discharge",
      "outputs": [],
      "stateMutability": "nonpayable",
      "type": "function"
    },
    {
      "inputs": [],
      "name": "Cancel",
      "outputs": [],
      "stateMutability": "nonpayable",
      "type": "function"
    },
    {
      "inputs": [],
      "name": "Release",
      "outputs": [],
      "stateMutability": "nonpayable",
      "type": "function"
    },
    {
      "inputs": [
        {
          "internalType": "string",
          "name": "time",
          "type": "string"
        },
        {
          "internalType": "string",
          "name": "title",
          "type": "string"
        }
      ],
      "name": "EventBuilder",
      "outputs": [],
      "stateMutability": "nonpayable",
      "type": "function"
    },
    {
      "inputs": [
        {
          "internalType": "string",
          "name": "time",
          "type": "string"
        },
        {
          "internalType": "string",
          "name": "title",
          "type": "string"
        }
      ],
      "name": "FluentBuilder",
      "outputs": [],
      "stateMutability": "nonpayable",
      "type": "function"
    },
    {
      "inputs": [],
      "name": "StateSummary",
      "outputs": [],
      "stateMutability": "nonpayable",
      "type": "function"
    },
    {
      "inputs": [
        {
          "internalType": "string",
          "name": "t",
          "type": "string"
        }
      ],
      "name": "onTime",
      "outputs": [
        {
          "internalType": "string",
          "name": "TimeIs",
          "type": "string"
        },
        {
          "internalType": "string",
          "name": "EventTitleIs",
          "type": "string"
        },
        {
          "internalType": "string",
          "name": "CommitmentTitleIs",
          "type": "string"
        }
      ],
      "stateMutability": "view",
      "type": "function",
      "constant": true
    },
    {
      "inputs": [
        {
          "internalType": "string",
          "name": "t",
          "type": "string"
        }
      ],
      "name": "onEvent",
      "outputs": [
        {
          "internalType": "string",
          "name": "TimeIs",
          "type": "string"
        },
        {
          "internalType": "string",
          "name": "EventTitleIs",
          "type": "string"
        },
        {
          "internalType": "string",
          "name": "CommitmentTitleIs",
          "type": "string"
        }
      ],
      "stateMutability": "view",
      "type": "function",
      "constant": true
    },
    {
      "inputs": [
        {
          "internalType": "uint256",
          "name": "_index",
          "type": "uint256"
        },
        {
          "internalType": "string",
          "name": "_title",
          "type": "string"
        }
      ],
      "name": "doAction",
      "outputs": [],
      "stateMutability": "nonpayable",
      "type": "function"
    },
    {
      "inputs": [],
      "name": "ifConstraint",
      "outputs": [],
      "stateMutability": "nonpayable",
      "type": "function"
    }
  ],
  "bytecode": "0x6080604052336000806101000a81548173ffffffffffffffffffffffffffffffffffffffff021916908373ffffffffffffffffffffffffffffffffffffffff16021790555034801561005057600080fd5b50336000806101000a81548173ffffffffffffffffffffffffffffffffffffffff021916908373ffffffffffffffffffffffffffffffffffffffff160217905550611919806100a06000396000f3fe608060405234801561001057600080fd5b50600436106100f45760003560e01c8063827791b011610097578063be1ebd9a11610066578063be1ebd9a146101e9578063c28ac0861461021b578063df3164c614610225578063f4fffbc21461022f576100f4565b8063827791b014610199578063ac8df825146101cb578063af35e0e4146101d5578063bacea65b146101df576100f4565b80634003db54116100d35780634003db541461014d5780634aa8e773146101695780636c07b567146101735780637a94fa9e1461017d576100f4565b8062cb39d6146100f95780630cb13c231461011557806320d7b50a14610131575b600080fd5b610113600480360381019061010e91906112db565b61024b565b005b61012f600480360381019061012a919061149a565b61028b565b005b61014b600480360381019061014691906113af565b6102f5565b005b6101676004803603810190610162919061141b565b61049b565b005b6101716104f8565b005b61017b610552565b005b6101976004803603810190610192919061131c565b6105ac565b005b6101b360048036038101906101ae91906112db565b61087a565b6040516101c29392919061165e565b60405180910390f35b6101d3610bc6565b005b6101dd610bc8565b005b6101e7610bca565b005b61020360048036038101906101fe91906112db565b610c24565b6040516102129392919061165e565b60405180910390f35b610223610f70565b005b61022d610fca565b005b610249600480360381019061024491906113af565b611024565b005b60008190507fbb5f04912e444b81784688dccf675b5a3e71fdd2de99a3bbd8ed66e3eea9b2b08260405161027f9190611605565b60405180910390a15050565b6000600483815481106102c7577f4e487b7100000000000000000000000000000000000000000000000000000000600052603260045260246000fd5b90600052602060002090600402019050818160020190805190602001906102ef929190611191565b50505050565b60008054906101000a900473ffffffffffffffffffffffffffffffffffffffff1673ffffffffffffffffffffffffffffffffffffffff163373ffffffffffffffffffffffffffffffffffffffff161461034d57600080fd5b60056040518060600160405280848152602001838152602001600060018111156103a0577f4e487b7100000000000000000000000000000000000000000000000000000000600052602160045260246000fd5b815250908060018154018082558091505060019003906000526020600020906003020160009091909190915060008201518160000190805190602001906103e8929190611191565b506020820151816001019080519060200190610405929190611191565b5060408201518160020160006101000a81548160ff02191690836001811115610457577f4e487b7100000000000000000000000000000000000000000000000000000000600052602160045260246000fd5b021790555050507f9f2e0642a591fe2f3fc5e2c669c22f228b4057630caf13d28493099fd1d09fba828260405161048f929190611627565b60405180910390a15050565b60008054906101000a900473ffffffffffffffffffffffffffffffffffffffff1673ffffffffffffffffffffffffffffffffffffffff163373ffffffffffffffffffffffffffffffffffffffff16146104f357600080fd5b505050565b60008054906101000a900473ffffffffffffffffffffffffffffffffffffffff1673ffffffffffffffffffffffffffffffffffffffff163373ffffffffffffffffffffffffffffffffffffffff161461055057600080fd5b565b60008054906101000a900473ffffffffffffffffffffffffffffffffffffffff1673ffffffffffffffffffffffffffffffffffffffff163373ffffffffffffffffffffffffffffffffffffffff16146105aa57600080fd5b565b60008054906101000a900473ffffffffffffffffffffffffffffffffffffffff1673ffffffffffffffffffffffffffffffffffffffff163373ffffffffffffffffffffffffffffffffffffffff161461060457600080fd5b60046040518060a00160405280868152602001856001811115610650577f4e487b7100000000000000000000000000000000000000000000000000000000600052602160045260246000fd5b815260200184600181111561068e577f4e487b7100000000000000000000000000000000000000000000000000000000600052602160045260246000fd5b8152602001838152602001600060028111156106d3577f4e487b7100000000000000000000000000000000000000000000000000000000600052602160045260246000fd5b8152509080600181540180825580915050600190039060005260206000209060040201600090919091909150600082015181600001908051906020019061071b929190611191565b5060208201518160010160006101000a81548160ff0219169083600181111561076d577f4e487b7100000000000000000000000000000000000000000000000000000000600052602160045260246000fd5b021790555060408201518160010160016101000a81548160ff021916908360018111156107c3577f4e487b7100000000000000000000000000000000000000000000000000000000600052602160045260246000fd5b021790555060608201518160020190805190602001906107e4929190611191565b5060808201518160030160006101000a81548160ff02191690836002811115610836577f4e487b7100000000000000000000000000000000000000000000000000000000600052602160045260246000fd5b021790555050507fbb5f04912e444b81784688dccf675b5a3e71fdd2de99a3bbd8ed66e3eea9b2b08460405161086c9190611605565b60405180910390a150505050565b606080606080606060005b600580549050811015610a1a57866040516020016108a391906115d7565b60405160208183030381529060405280519060200120600582815481106108f3577f4e487b7100000000000000000000000000000000000000000000000000000000600052603260045260246000fd5b906000526020600020906003020160000160405160200161091491906115ee565b604051602081830303815290604052805190602001201415610a07576005818154811061096a577f4e487b7100000000000000000000000000000000000000000000000000000000600052603260045260246000fd5b9060005260206000209060030201600101805461098690611793565b80601f01602080910402602001604051908101604052809291908181526020018280546109b290611793565b80156109ff5780601f106109d4576101008083540402835291602001916109ff565b820191906000526020600020905b8154815290600101906020018083116109e257829003601f168201915b505050505092505b8080610a12906117c5565b915050610885565b5060005b600480549050811015610bb35786604051602001610a3c91906115d7565b6040516020818303038152906040528051906020012060048281548110610a8c577f4e487b7100000000000000000000000000000000000000000000000000000000600052603260045260246000fd5b9060005260206000209060040201600001604051602001610aad91906115ee565b604051602081830303815290604052805190602001201415610ba05760048181548110610b03577f4e487b7100000000000000000000000000000000000000000000000000000000600052603260045260246000fd5b90600052602060002090600402016002018054610b1f90611793565b80601f0160208091040260200160405190810160405280929190818152602001828054610b4b90611793565b8015610b985780601f10610b6d57610100808354040283529160200191610b98565b820191906000526020600020905b815481529060010190602001808311610b7b57829003601f168201915b505050505091505b8080610bab906117c5565b915050610a1e565b5085828294509450945050509193909250565b565b565b60008054906101000a900473ffffffffffffffffffffffffffffffffffffffff1673ffffffffffffffffffffffffffffffffffffffff163373ffffffffffffffffffffffffffffffffffffffff1614610c2257600080fd5b565b606080606080606060005b600580549050811015610dc45786604051602001610c4d91906115d7565b6040516020818303038152906040528051906020012060058281548110610c9d577f4e487b7100000000000000000000000000000000000000000000000000000000600052603260045260246000fd5b9060005260206000209060030201600001604051602001610cbe91906115ee565b604051602081830303815290604052805190602001201415610db15760058181548110610d14577f4e487b7100000000000000000000000000000000000000000000000000000000600052603260045260246000fd5b90600052602060002090600302016001018054610d3090611793565b80601f0160208091040260200160405190810160405280929190818152602001828054610d5c90611793565b8015610da95780601f10610d7e57610100808354040283529160200191610da9565b820191906000526020600020905b815481529060010190602001808311610d8c57829003601f168201915b505050505092505b8080610dbc906117c5565b915050610c2f565b5060005b600480549050811015610f5d5786604051602001610de691906115d7565b6040516020818303038152906040528051906020012060048281548110610e36577f4e487b7100000000000000000000000000000000000000000000000000000000600052603260045260246000fd5b9060005260206000209060040201600001604051602001610e5791906115ee565b604051602081830303815290604052805190602001201415610f4a5760048181548110610ead577f4e487b7100000000000000000000000000000000000000000000000000000000600052603260045260246000fd5b90600052602060002090600402016002018054610ec990611793565b80601f0160208091040260200160405190810160405280929190818152602001828054610ef590611793565b8015610f425780601f10610f1757610100808354040283529160200191610f42565b820191906000526020600020905b815481529060010190602001808311610f2557829003601f168201915b505050505091505b8080610f55906117c5565b915050610dc8565b5085828294509450945050509193909250565b60008054906101000a900473ffffffffffffffffffffffffffffffffffffffff1673ffffffffffffffffffffffffffffffffffffffff163373ffffffffffffffffffffffffffffffffffffffff1614610fc857600080fd5b565b60008054906101000a900473ffffffffffffffffffffffffffffffffffffffff1673ffffffffffffffffffffffffffffffffffffffff163373ffffffffffffffffffffffffffffffffffffffff161461102257600080fd5b565b60008054906101000a900473ffffffffffffffffffffffffffffffffffffffff1673ffffffffffffffffffffffffffffffffffffffff163373ffffffffffffffffffffffffffffffffffffffff161461107c57600080fd5b60066040518060600160405280848152602001838152602001600060028111156110cf577f4e487b7100000000000000000000000000000000000000000000000000000000600052602160045260246000fd5b81525090806001815401808255809150506001900390600052602060002090600302016000909190919091506000820151816000019080519060200190611117929190611191565b506020820151816001019080519060200190611134929190611191565b5060408201518160020160006101000a81548160ff02191690836002811115611186577f4e487b7100000000000000000000000000000000000000000000000000000000600052602160045260246000fd5b021790555050505050565b82805461119d90611793565b90600052602060002090601f0160209004810192826111bf5760008555611206565b82601f106111d857805160ff1916838001178555611206565b82800160010185558215611206579182015b828111156112055782518255916020019190600101906111ea565b5b5090506112139190611217565b5090565b5b80821115611230576000816000905550600101611218565b5090565b6000611247611242846116db565b6116aa565b90508281526020810184848401111561125f57600080fd5b61126a848285611751565b509392505050565b600081359050611281816118ac565b92915050565b600081359050611296816118bc565b92915050565b600082601f8301126112ad57600080fd5b81356112bd848260208601611234565b91505092915050565b6000813590506112d5816118cc565b92915050565b6000602082840312156112ed57600080fd5b600082013567ffffffffffffffff81111561130757600080fd5b6113138482850161129c565b91505092915050565b6000806000806080858703121561133257600080fd5b600085013567ffffffffffffffff81111561134c57600080fd5b6113588782880161129c565b945050602061136987828801611287565b935050604061137a87828801611272565b925050606085013567ffffffffffffffff81111561139757600080fd5b6113a38782880161129c565b91505092959194509250565b600080604083850312156113c257600080fd5b600083013567ffffffffffffffff8111156113dc57600080fd5b6113e88582860161129c565b925050602083013567ffffffffffffffff81111561140557600080fd5b6114118582860161129c565b9150509250929050565b60008060006060848603121561143057600080fd5b600084013567ffffffffffffffff81111561144a57600080fd5b6114568682870161129c565b9350506020611467868287016112c6565b925050604084013567ffffffffffffffff81111561148457600080fd5b6114908682870161129c565b9150509250925092565b600080604083850312156114ad57600080fd5b60006114bb858286016112c6565b925050602083013567ffffffffffffffff8111156114d857600080fd5b6114e48582860161129c565b9150509250929050565b60006114f982611720565b611503818561172b565b9350611513818560208601611760565b61151c8161189b565b840191505092915050565b600061153282611720565b61153c818561173c565b935061154c818560208601611760565b80840191505092915050565b6000815461156581611793565b61156f818661173c565b9450600182166000811461158a576001811461159b576115ce565b60ff198316865281860193506115ce565b6115a48561170b565b60005b838110156115c6578154818901526001820191506020810190506115a7565b838801955050505b50505092915050565b60006115e38284611527565b915081905092915050565b60006115fa8284611558565b915081905092915050565b6000602082019050818103600083015261161f81846114ee565b905092915050565b6000604082019050818103600083015261164181856114ee565b9050818103602083015261165581846114ee565b90509392505050565b6000606082019050818103600083015261167881866114ee565b9050818103602083015261168c81856114ee565b905081810360408301526116a081846114ee565b9050949350505050565b6000604051905081810181811067ffffffffffffffff821117156116d1576116d061186c565b5b8060405250919050565b600067ffffffffffffffff8211156116f6576116f561186c565b5b601f19601f8301169050602081019050919050565b60008190508160005260206000209050919050565b600081519050919050565b600082825260208201905092915050565b600081905092915050565b6000819050919050565b82818337600083830152505050565b60005b8381101561177e578082015181840152602081019050611763565b8381111561178d576000848401525b50505050565b600060028204905060018216806117ab57607f821691505b602082108114156117bf576117be61183d565b5b50919050565b60006117d082611747565b91507fffffffffffffffffffffffffffffffffffffffffffffffffffffffffffffffff8214156118035761180261180e565b5b600182019050919050565b7f4e487b7100000000000000000000000000000000000000000000000000000000600052601160045260246000fd5b7f4e487b7100000000000000000000000000000000000000000000000000000000600052602260045260246000fd5b7f4e487b7100000000000000000000000000000000000000000000000000000000600052604160045260246000fd5b6000601f19601f8301169050919050565b600281106118b957600080fd5b50565b600281106118c957600080fd5b50565b6118d581611747565b81146118e057600080fd5b5056fea26469706673582212203365551ce2f45b85b3638fa309a2d324669fac74a860ff8361aeb485afc74c8064736f6c63430008000033",
  "immutableReferences": {},
  "source": "// SPDX-License-Identifier: UNLICENSED \npragma solidity ^0.8.0;\n\ncontract CBSC {\n\n    /*\n       =========================================================\n\n       Commitment Based Smart Contracts\n       Prototype for PhD dissertation\n\n       Joost de Kruijff\n       j.c.dekruijff@tilburguniversity.edu\n       https://github.com/codeoffconduct/CBSC\n\n       =========================================================\n   */\n\n\n    /*\n       Rules of engagement (ROE)\n       - Properties in the ROE change the state of the blockchain\n       - Struct definitions\n       - Arrays to store the struct objects in order to work with initiated commitments, events and fluents\n   */\n\n    // address variable defining the owner\n    address internal owner = msg.sender;\n\n    //Swap roles during assignment and delegation\n    address internal x;\n    address internal y;\n    address internal z;\n\n    // State enums\n    enum EventState {Defined, Executed}\n    enum FluentState {NonFulfilled, PartialFulfilled, Fulfilled}\n    enum CommitmentState {Committed, Activated, Terminated}\n\n    // Non-state enums\n    enum CommitmentType {BC, CC}\n    enum CommitmentCategory {Exchange, Control}\n\n    // Commitment struct\n    struct Commitment {\n        string _time;\n        CommitmentType _type;\n        CommitmentCategory _category;\n        string _title;\n        CommitmentState _state;\n    }\n\n    // Event struct\n    struct Event {\n        string _time;\n        string _title;\n        EventState _state;\n    }\n\n    // Fluent struct\n    struct Fluent {\n        string _time;\n        string _title;\n        FluentState _state;\n    }\n\n    // Asset\n    struct Asset {\n        string a;\n        uint256 m;\n    }\n\n    // Array to store Commitment structs\n    Commitment[] private commitments;\n\n    // Array to store Event structs\n    Event[] private events;\n\n    // Array to store Event structs\n    Fluent[] private fluents;\n\n    // Variable to store the asset details, like the address\n    string A;\n\n    // // Variable to store the asset details, like the address\n    uint256 M;\n\n\n    /*\n        Modifiers\n    */\n\n    // Halts function if owner is not initiating the transaction\n    modifier onlyOwner {\n        require(msg.sender == owner);\n        _;\n    }\n\n\n    /*\n        Events\n        - Details per event can be found in the Log debug output of the transaction\n        - Use web3 library to interact with events and setup listeners\n    */\n\n    // Trigger event to notify outside code that a new event is created\n    event EventStateLog(\n    //output the commitment details\n        string, string\n    );\n\n    // Trigger event to notify outside code that a new event is created\n    event FluentStateLog(\n    //output the commitment details\n        string, string\n    );\n\n    // Trigger event to notify outside code that a new commitment is created\n    event CommitmentStateLog(\n    //output the commitment details\n        string\n    );\n\n    // Show all state changes on the ledger\n    event ProtocolRun(string, string, uint);\n\n    /*\n        Create Functions\n    */\n\n    constructor() {\n        // Set the owner\n        owner = msg.sender;\n    }\n\n    function Test(string memory test) external {\n        string memory a = test;\n        emit CommitmentStateLog(test);\n    }\n\n\n    // Create a Commitment\n    function Commit(\n        string memory time,\n        CommitmentType type_,\n        CommitmentCategory category,\n        string memory title) external onlyOwner\n    {\n\n        commitments.push(Commitment({\n        _time : time,\n        _type : type_,\n        _category : category,\n        _title : title,\n        _state : CommitmentState.Committed\n        }));\n\n        // Notify event triggers of new commitment\n        emit CommitmentStateLog(time);\n    }\n\n    // Modify the state of an existing commitment\n    function Activate(\n        string memory time,\n        uint index_,\n        string memory title) external onlyOwner\n    {\n        //        commitments.push(Commitment({\n        //        _time : time,\n        //        _type : commitments[index_][_type],\n        //        _category : commitments[index_][_category],\n        //        _title : commitments[index_][title],\n        //        _state : CommitmentState.Activated\n        //        }));\n        //\n        //        // Notify event triggers of new commitment\n        //        emit CommitmentStateLog(time, type_, category, title);\n    }\n\n    // Delegate a commitment\n    function Delegate() external onlyOwner {}\n\n    // Assign a commitment\n    function Assign() external onlyOwner {}\n\n    // Discharge a commitment\n    function Discharge() external onlyOwner {}\n\n    // Discharge a commitment\n    function Cancel() external onlyOwner {}\n\n    // Discharge a commitment\n    function Release() external onlyOwner {}\n\n    // Create an Event\n    function EventBuilder(string memory time, string memory title) external onlyOwner {\n        events.push(Event({\n        _time : time,\n        _title : title,\n        _state : EventState.Defined\n        }));\n\n        // Notify event triggers of new event\n        emit EventStateLog(time, title);\n    }\n\n    // Create a fluent\n    function FluentBuilder(string memory time, string memory title) external onlyOwner {\n        fluents.push(Fluent({\n        _title : title,\n        _time : time,\n        _state : FluentState.NonFulfilled\n        }));\n    }\n\n    /*\n        Query Functions\n    */\n\n    // Query state changes of the ledger\n    //    function State() external {\n    //        for (uint i = 0; i < events.length; i++) {\n    //            emit ProtocolRun(events[i]._time, events[i]._title);\n    //            emit ProtocolRun(commitments[i]._time, commitments[i]._title, commitments[i]);\n    //        }\n    //    }\n\n    // Query the latest state in the protocol run\n    function StateSummary() external {}\n\n    function onTime(string memory t) external view returns (string memory TimeIs, string memory EventTitleIs, string memory CommitmentTitleIs){\n        string memory eventOnT;\n        string memory commitmentOnT;\n\n        for (uint i = 0; i < events.length; i++) {\n            if (keccak256(abi.encodePacked(events[i]._time)) == keccak256(abi.encodePacked(t))) {\n                eventOnT = events[i]._title;\n            }\n        }\n\n        for (uint i = 0; i < commitments.length; i++) {\n            if (keccak256(abi.encodePacked(commitments[i]._time)) == keccak256(abi.encodePacked(t))) {\n                commitmentOnT = commitments[i]._title;\n            }\n        }\n        return (t, eventOnT, commitmentOnT);\n    }\n\n    /*\n        KR Reaction RuleML forward chaining\n    */\n\n    // Event trigger\n    function onEvent(string memory t) external view returns (string memory TimeIs, string memory EventTitleIs, string memory CommitmentTitleIs){\n        string memory eventOnT;\n        string memory commitmentOnT;\n\n        for (uint i = 0; i < events.length; i++) {\n            if (keccak256(abi.encodePacked(events[i]._time)) == keccak256(abi.encodePacked(t))) {\n                eventOnT = events[i]._title;\n            }\n        }\n\n        for (uint i = 0; i < commitments.length; i++) {\n            if (keccak256(abi.encodePacked(commitments[i]._time)) == keccak256(abi.encodePacked(t))) {\n                commitmentOnT = commitments[i]._title;\n            }\n        }\n        return (t, eventOnT, commitmentOnT);\n    }\n\n    // Perform action to manipulate commitments through smart contract state\n    function doAction(uint _index, string memory _title) public {\n        Commitment storage commitment = commitments[_index];\n        commitment._title = _title;\n    }\n\n    // Verify HoldsAt condition\n    function ifConstraint() public {\n        //TODO\n    }\n\n}",
  "sourcePath": "/Users/jc/Documents/Code/Truffle/CBSC/contracts/CBSC.sol",
  "compiler": {
    "name": "solc",
    "version": "0.8.0+commit.c7dfd78e.Emscripten.clang"
  },
  "schemaVersion": "3.4.2",
  "updatedAt": "2021-07-30T04:55:50.401Z",
  "networkType": "ethereum",
  "devdoc": {
    "kind": "dev",
    "methods": {},
    "version": 1
  },
  "userdoc": {
    "kind": "user",
    "methods": {},
    "version": 1
  }
}