{
  "contractName": "Test",
  "abi": [
    {
      "inputs": [],
      "name": "testCBSC",
      "outputs": [
        {
          "internalType": "contract CBSC",
          "name": "",
          "type": "address"
        }
      ],
      "stateMutability": "view",
      "type": "function"
    },
    {
      "inputs": [],
      "name": "doSomething",
      "outputs": [],
      "stateMutability": "nonpayable",
      "type": "function"
    }
  ],
  "bytecode": "0x60806040526040516100109061007e565b604051809103906000f08015801561002c573d6000803e3d6000fd5b506000806101000a81548173ffffffffffffffffffffffffffffffffffffffff021916908373ffffffffffffffffffffffffffffffffffffffff16021790555034801561007857600080fd5b5061008b565b6101c88061029983390190565b6101ff8061009a6000396000f3fe608060405234801561001057600080fd5b50600436106100365760003560e01c8063826926791461003b578063ce23622f14610045575b600080fd5b610043610063565b005b61004d6100f1565b60405161005a9190610133565b60405180910390f35b60008054906101000a900473ffffffffffffffffffffffffffffffffffffffff1673ffffffffffffffffffffffffffffffffffffffff1663388ea3ef607b6040518263ffffffff1660e01b81526004016100bd919061014e565b600060405180830381600087803b1580156100d757600080fd5b505af11580156100eb573d6000803e3d6000fd5b50505050565b60008054906101000a900473ffffffffffffffffffffffffffffffffffffffff1681565b61011e81610193565b82525050565b61012d816101b7565b82525050565b60006020820190506101486000830184610115565b92915050565b60006020820190506101636000830184610124565b92915050565b600073ffffffffffffffffffffffffffffffffffffffff82169050919050565b6000819050919050565b600061019e826101a5565b9050919050565b60006101b082610169565b9050919050565b60006101c282610189565b905091905056fea2646970667358221220aabe425ab5090136ce21243fec2a6c3c71da943890cfbf3e9f752738ca94812764736f6c63430008000033608060405234801561001057600080fd5b506101a8806100206000396000f3fe608060405234801561001057600080fd5b506004361061004c5760003560e01c8063388ea3ef1461005157806360fe47b11461006d5780636d4ce63c14610089578063c6a898c5146100a7575b600080fd5b61006b600480360381019061006691906100fe565b6100c5565b005b610087600480360381019061008291906100fe565b6100cf565b005b6100916100d9565b60405161009e9190610136565b60405180910390f35b6100af6100e3565b6040516100bc9190610136565b60405180910390f35b8060018190555050565b8060028190555050565b6000600254905090565b60015481565b6000813590506100f88161015b565b92915050565b60006020828403121561011057600080fd5b600061011e848285016100e9565b91505092915050565b61013081610151565b82525050565b600060208201905061014b6000830184610127565b92915050565b6000819050919050565b61016481610151565b811461016f57600080fd5b5056fea2646970667358221220530821de24d210f1a7d0da1fbda357bf949ffef1771975eb46b074418e468ad564736f6c63430008000033",
  "immutableReferences": {},
  "source": "// SPDX-License-Identifier: GPL-3.0\npragma solidity >=0.7.0 <0.9.0;\n\nimport \"./CBSC.sol\";\n\n\ncontract Test {\n\n    CBSC public testCBSC = new CBSC();\n\n    function doSomething() public {\n        testCBSC.setU(123);\n    }\n\n}",
  "sourcePath": "/Users/jc/Documents/Code/Truffle/CBSC/contracts/Test.sol",
  "compiler": {
    "name": "solc",
    "version": "0.8.0+commit.c7dfd78e.Emscripten.clang"
  },
  "schemaVersion": "3.4.1",
  "updatedAt": "2021-07-15T07:53:06.930Z",
  "devdoc": {
    "kind": "dev",
    "methods": {},
    "version": 1
  },
  "userdoc": {
    "kind": "user",
    "methods": {},
    "version": 1
  }
}